:100000000C942A000C9447000C9447000C94470071
:100010000C9447000C9447000C9447000C94470044
:100020000C9447000C9447000C9425070C94EA06A6
:100030000C9447000C9447000C9447000C94470024
:100040000C9471050C9447000C9447000C944700E5
:100050000C94470011241FBECFE5D8E0DEBFCDBF12
:1000600011E0A0E6B0E0E2E8F1E102C005900D92F7
:10007000AC32B107D9F721E0ACE2B1E001C01D928A
:10008000A434B207E1F70E941F050C94BF080C943A
:100090000000CF93DF9300D0CDB7DEB7BE016F5F16
:1000A0007F4F81E00E94530529813A81A8E8B3E19E
:1000B0000E94B008DC01CB01072E7AE0B695A79527
:1000C000979587957A95D1F7702D8D3D954030F0B5
:1000D00041E065E080E00E94B40505C040E065E0D5
:1000E00080E00E94B4050F900F90DF91CF910895AA
:1000F00084EC99E09BBD8ABD08958EE096E09BBD9F
:100100008ABD0895813031F441E066E083E00E94C9
:10011000B405089540E066E083E00E94B4050895C8
:10012000813031F441E064E080E00E94B40508953C
:1001300040E064E080E00E94B4050895813031F42D
:1001400041E065E080E00E94B405089540E065E08C
:1001500080E00E94B40508950E94150560E081E0EA
:100160000E94FE0485E690E00E9495040E947800BB
:1001700081E00E9490002FEF89E698E121508040B5
:100180009040E1F700C000000E947D0080E00E94E6
:10019000900008950E94150560E081E00E94FE0431
:1001A00084E790E00E94950481E00E9482002FEF96
:1001B00089E698E1215080409040E1F700C00000BE
:1001C00080E00E948200089560E081E00E94FE04C9
:1001D00082E890E00E94950460E082E00E94FE04C4
:1001E00008950E94150560E081E00E94FE0482E906
:1001F00090E00E94950481E00E949E002FEF84E32E
:100200009CE0215080409040E1F700C000000E9437
:10021000150580E00E949E0060E081E00E94FE04DF
:100220008FE990E00E949504089580E00E949E006E
:1002300080E00E94900080E00E9482000E941505EC
:100240000895CF92DF92EF92FF926B017C010E94A2
:10025000BB0641E066E080E00E94B40540E067E054
:1002600080E00E94B40520E030E048EC52E4C70191
:10027000B6010E945E0720E030E04FE753E40E94A1
:1002800021080E94C4062FEF80E792E021508040B1
:100290009040E1F700C00000FF90EF90DF90CF901A
:1002A000089580E090E00E94C406089567E371E03D
:1002B00080E00E9453052091370130913801A8E871
:1002C000B3E10E94B0089B01AC01012E1AE05695E3
:1002D0004795379527951A95D1F7102D30933F0103
:1002E00020933E01ADECBCEC0E94B008969587953A
:1002F000969587959695879590933C0180933B01C1
:100300009C01295131092530310538F460E070E055
:1003100088E492E40E94210108959C012E51310944
:100320002530310538F460E070E08CE892E40E94FA
:1003300021010895839738F060E070E088EC92E442
:100340000E94210108950E94510108951F93CF93A7
:10035000DF931F92CDB7DEB70E9415050E941501ED
:1003600060E081E00E94FE048BEA90E00E94950428
:1003700060E082E00E94FE0487EB90E00E9495041A
:1003800069E082E00E94FE048FEB90E00E949504F9
:1003900010E05DC049E351E062E083E00E94430663
:1003A0004AE351E063E083E00E9443060E94560165
:1003B00080913A0181110CC00E94150586EC90E0F5
:1003C0000E94950481E00E9482000E947800FFCF85
:1003D0008091390181110CC00E9415058FEC90E0CD
:1003E0000E94950481E00E9482000E947800FFCF65
:1003F0000E944900CE0101960E94AC0389818F3F83
:1004000031F1823341F0833309F1813341F40E94A9
:10041000B10211E01CC00E942F0211E018C00E941E
:10042000150560E081E00E94FE048FED90E00E94DF
:1004300095042FEF84E39CE0215080409040E1F749
:1004400000C000000E94A60111E001C011E01123CC
:1004500009F4A0CF0F90DF91CF911F9108951F93C2
:10046000CF93DF931F92CDB7DEB70E94150560E0F2
:1004700081E00E94FE048EEE90E00E94950460E010
:1004800082E00E94FE0488EF90E00E94950410E054
:1004900060C049E351E062E083E00E9443064AE322
:1004A00051E063E083E00E9443060E945601809180
:1004B0003A0181110CC00E94150586EC90E00E9463
:1004C000950481E00E9482000E947800FFCF809115
:1004D000390181110CC00E9415058FEC90E00E943B
:1004E000950481E00E9482000E947800FFCF0E9464
:1004F0004900CE0101960E94AC0389818F3F49F1EA
:10050000813319F0823339F00CC041E062E080E0C1
:100510000E94B4051BC040E062E080E00E94B40588
:1005200015C00E94150560E081E00E94FE048FED79
:1005300090E00E9495042FEF84E39CE021508040DE
:100540009040E1F700C000000E94A6010E94A601B1
:1005500011E0112309F49DCF0F90DF91CF911F91EE
:1005600008950E94150560E081E00E94FE0483E08A
:1005700091E00E94950467E371E080E00E945305DA
:100580002091370130913801A8E8B3E10E94B0080A
:100590009B01AC01012E1AE056954795379527959A
:1005A0001A95D1F7102D30933F0120933E01ADEC09
:1005B000BCEC0E94B0089695879596958795969580
:1005C000879590933C0180933B01BC0180E090E0D3
:1005D0000E94A2042FEF89E698E1215080409040CC
:1005E000E1F700C000000E94A60108950F931F9339
:1005F000CF93DF931F92CDB7DEB72FEF81EE94E05C
:10060000215080409040E1F700C000000E94150199
:1006100002E010E098C081E0809360000E94E40056
:1006200010923D014CC049E351E062E083E00E943A
:1006300043064AE351E063E083E00E944306809171
:100640003A0181110CC00E94150586EC90E00E94D1
:10065000950481E00E9482000E947800FFCF809183
:100660003901811115C00E9415058FEC90E00E94A0
:10067000950481E00E9482000E9478002FEF89E6B5
:1006800098E1215080409040E1F700C00000FFCF8A
:100690000E944900CE0101960E94AC0389818F3FE0
:1006A00071F08AE20E94730480913D01E82FF0E02E
:1006B000E05CFE4F998190838F5F80933D01809134
:1006C0003D01843008F4AFCF10923D0110C0282FB7
:1006D00030E0F901EF59FF4F4081F901E05CFE4F36
:1006E00090814913109260008F5F80933D0180914B
:1006F0003D01843060F380916000813029F40E94D4
:10070000AC000E94A60122C00E94F1000115110553
:1007100019F480E30E947304B801012E000C880BC9
:10072000990B0E94A2042FEF84E39CE021508040AB
:100730009040E1F700C000000115110511F40E947E
:10074000CA000150110911230CF065CF0F90DF9101
:10075000CF911F910F9108957F928F929F92AF92A8
:10076000BF92CF92DF92EF92FF920F931F93CF939E
:10077000DF931F92CDB7DEB7009709F45EC06C011E
:100780008FEFF6018083712C912C51C0A92CB12CD4
:10079000F501E35FFE4F808040E0682D81E00E941C
:1007A000B40510E039C0E12EF12CF701E75FFE4FF0
:1007B0000081AE014F5F5F4F602F81E00E944306D2
:1007C0009981911128C08FE39CE90197F1F700C04E
:1007D0000000AE014F5F5F4F602F81E00E94430633
:1007E00007C0AE014F5F5F4F602F81E00E9443065C
:1007F00089818823B1F3C501880F991F880F991F3C
:100800008F5E9E4FFC01EE0DFF1D8081F6018083FF
:100810007724739403C01F5F143028F241E0682DE1
:1008200081E00E94B405F1E07F1649F0939483E0E3
:10083000891508F0ABCF81E003C080E001C081E002
:100840000F90DF91CF911F910F91FF90EF90DF906C
:10085000CF90BF90AF909F908F907F900895CF934F
:10086000C82F40E060E083E00E94B40540E061E012
:1008700083E00E94B4056C2F82E00E94A10641E053
:1008800067E083E00E94B4058FEC97E00197F1F7F1
:1008900000C0000040E067E083E00E94B405CF9113
:1008A00008952FEB8AED90E0215080409040E1F7D1
:1008B00000C0000088E30E942F042AE62A95F1F781
:1008C00000C08CE00E942F048AE68A95F1F700C0F0
:1008D00081E00E942F0495E09A95F1F7000086E0F0
:1008E0000E942F040895CF93C82F41E060E083E079
:1008F0000E94B40540E061E083E00E94B4056C2FE3
:1009000082E00E94A10641E067E083E00E94B40516
:100910008FEC97E00197F1F700C0000040E067E03E
:1009200083E00E94B405CF910895CF93DF93EC014B
:1009300003C00E947304219688818111FACFDF9150
:10094000CF9108958F929F92AF92BF92CF92DF92F4
:10095000EF92FF920F931F93CF93DF93C12CD12C73
:10096000760120C02AE030E040E050E00E948E088E
:10097000CC0CDD1CEE1CFF1C46015701880C991C99
:10098000AA1CBB1C880C991CAA1CBB1CC80CD91C1B
:10099000EA1CFB1CC60ED71EE81EF91E622F732F21
:1009A000842F952F6115710581059105D9F614C025
:1009B000C701B6012AE030E040E050E00E948E0816
:1009C000022F132FD42FC52F80E3860F0E947304AC
:1009D000C02ED12EED2EFC2EC114D104E104F10461
:1009E00039F7DF91CF911F910F91FF90EF90DF903A
:1009F000CF90BF90AF909F908F900895683288F409
:100A0000813019F0823039F00EC080E8860F0E94E4
:100A10002F0481E0089580EC860F0E942F0481E06E
:100A2000089580E0089580E0089581E00E942F04F9
:100A30008FE99FE00197F1F700C0000008950E9440
:100A4000A5050E94B7060E94C6060E943A050E94AC
:100A500051040E9415050E94F6020E9415050E948D
:100A6000150160E081E00E94FE0481E291E00E94B5
:100A70009504F1CF87B18F7787B987B1806487B943
:100A800087B18F7D87B987B18F7D87B986B1846043
:100A900086B986B1826086B986B18E7F86B986B105
:100AA000806886B908958032C0F461157105B9F087
:100AB00097B1907E97B997B1892B87B986B1806439
:100AC00086B9349BFECF86B1806186B984B195B179
:100AD000FB019183808381E0089580E0089580E0A8
:100AE00008951F920F920FB60F9211242F933F93E8
:100AF0004F935F936F937F938F939F93AF93BF9326
:100B0000EF93FF9380912D0190912E01892B61F03D
:100B100010922C0186B1877F86B984B195B1E0919E
:100B20002D01F0912E010995FF91EF91BF91AF91A9
:100B30009F918F917F916F915F914F913F912F91F5
:100B40000F900FBE0F901F9018958CEF8ABB8FE00F
:100B500087BB8FEF84BB93EF91BB98E09BBB88BBB7
:100B600015BA8CE082BB0895683008F080C08130EF
:100B700031F138F0823009F440C0833009F45AC0B2
:100B800078C0442379F0413009F075C02BB381E07F
:100B900090E002C0880F991F6A95E2F7822B8BBB09
:100BA00081E008952BB381E090E002C0880F991F87
:100BB0006A95E2F7809582238BBB81E008954423F8
:100BC00079F0413009F059C028B381E090E002C0CB
:100BD000880F991F6A95E2F7822B88BB81E0089500
:100BE00028B381E090E002C0880F991F6A95E2F770
:100BF0008095822388BB81E00895442371F04130C1
:100C0000F1F525B381E090E002C0880F991F6A9545
:100C1000E2F7822B85BB81E0089525B381E090E067
:100C200002C0880F991F6A95E2F78095822385BBE1
:100C300081E00895442371F0413019F522B381E039
:100C400090E002C0880F991F6A95E2F7822B82BB61
:100C500081E0089522B381E090E002C0880F991FDF
:100C60006A95E2F78095822382BB81E0089580E057
:100C7000089580E0089580E0089580E0089580E080
:100C8000089580E00895843008F053C0683008F07B
:100C900052C04115510509F450C08130B9F028F017
:100CA000823029F18330A1F14AC089B390E002C0BB
:100CB000959587956A95E2F780FD04C0FA01108248
:100CC00081E0089581E0FA018083089586B390E081
:100CD00002C0959587956A95E2F780FD04C0FA01F8
:100CE000108281E0089581E0FA018083089583B342
:100CF00090E002C0959587956A95E2F780FD04C063
:100D0000FA01108281E0089581E0FA01808308955C
:100D100080B390E002C0959587956A95E2F780FDD3
:100D200004C0FA01108281E0089581E0FA01808315
:100D3000089580E0089580E0089580E0089581E0BE
:100D40000895813049F028F0823049F0833051F025
:100D50000CC06BBB81E0089568BB81E0089565BB62
:100D600081E0089562BB81E0089580E008958FB727
:100D700080688FBF089583B788648F7E80628E7F7E
:100D800082608B7F83BF08958CBF08958FB582608A
:100D90008FBD8FB58E7F8FBD8EB580618EBD8EB5B8
:100DA00088608EBD8FB580688FBD8FB58F7B8FBDFE
:100DB0008FE19EE497BD86BD8CED95E09BBD8ABD1D
:100DC0008EB58B7F8EBD8EB582608EBD8EB58E7FCB
:100DD0008EBD08951F920F920FB60F9211242F937C
:100DE0003F934F935F936F937F938F939F93AF93B3
:100DF000BF93EF93FF93809131019091320101965F
:100E000090933201809331018739984969F484EFD6
:100E100082BF1092320110923101E0913501F091C0
:100E20003601309709F00995FF91EF91BF91AF918D
:100E30009F918F917F916F915F914F913F912F91F2
:100E40000F900FBE0F901F9018951F920F920FB624
:100E50000F9211242F933F934F935F936F937F9340
:100E60008F939F93AF93BF93EF93FF9380912F0145
:100E70009091300101969093300180932F01883E2C
:100E8000934059F41092300110922F01E0913301F8
:100E9000F0913401309709F00995FF91EF91BF91DE
:100EA000AF919F918F917F916F915F914F913F9102
:100EB0002F910F900FBE0F901F9018950E947207F0
:100EC0000C94E7070E94E00758F00E94D90740F011
:100ED00029F45F3F29F00C94D00751110C941B08A2
:100EE0000C94D6070E94F80768F39923B1F35523B1
:100EF00091F3951B550BBB27AA276217730784072D
:100F000038F09F5F5F4F220F331F441FAA1FA9F3C2
:100F100035D00E2E3AF0E0E832D091505040E695B0
:100F2000001CCAF72BD0FE2F29D0660F771F881F11
:100F3000BB1F261737074807AB07B0E809F0BB0B04
:100F4000802DBF01FF2793585F4F3AF09E3F510518
:100F500078F00C94D0070C941B085F3FE4F3983EA4
:100F6000D4F3869577956795B795F7959F5FC9F701
:100F7000880F911D9695879597F90895E1E0660F82
:100F8000771F881FBB1F621773078407BA0720F0FB
:100F9000621B730B840BBA0BEE1F88F7E095089564
:100FA00097F99F6780E870E060E008959FEF80EC1C
:100FB000089500240A9416161706180609060895BF
:100FC00000240A9412161306140605060895092E25
:100FD0000394000C11F4882352F0BB0F40F4BF2B94
:100FE00011F460FF04C06F5F7F4F8F4F9F4F0895D4
:100FF00057FD9058440F551F59F05F3F71F04795CA
:10100000880F97FB991F61F09F3F79F087950895AE
:10101000121613061406551FF2CF4695F1DF08C0CD
:10102000161617061806991FF1CF869571056105EA
:1010300008940895E894BB2766277727CB0197F992
:1010400008950E9434080C94E7070E94D90738F0ED
:101050000E94E00720F0952311F00C94D0070C9427
:10106000D60711240C941B080E94F80770F3959F73
:10107000C1F3950F50E0551F629FF001729FBB278F
:10108000F00DB11D639FAA27F00DB11DAA1F649F2B
:101090006627B00DA11D661F829F2227B00DA11DDE
:1010A000621F739FB00DA11D621F839FA00D611D64
:1010B000221F749F3327A00D611D231F849F600D85
:1010C000211D822F762F6A2F11249F5750409AF0AE
:1010D000F1F088234AF0EE0FFF1FBB1F661F771F3A
:1010E000881F91505040A9F79E3F510580F00C9405
:1010F000D0070C941B085F3FE4F3983ED4F3869529
:1011000077956795B795F795E7959F5FC1F7FE2BA4
:10111000880F911D9695879597F90895A1E21A2E4B
:10112000AA1BBB1BFD010DC0AA1FBB1FEE1FFF1F8B
:10113000A217B307E407F50720F0A21BB30BE40BDB
:10114000F50B661F771F881F991F1A9469F7609522
:101150007095809590959B01AC01BD01CF010895DC
:10116000A29FB001B39FC001A39F700D811D1124E8
:10117000911DB29F700D811D1124911D0895F89449
:02118000FFCF9F
:10118200013132333441636365737320416C6C6F98
:10119200776564004163636573732044656E6965B6
:1011A2006400456E7465722050617373776F726468
:1011B2003A0057726F6E672050617373202100549A
:1011C20072696573204C6566743A00312E53686FFC
:1011D200772054656D7000322E4C69676874003355
:1011E2002E457869740046697265212121210047E4
:1011F2006173204C65616B696E6721212121005763
:10120200726F6E672043686F696365202100312E1B
:101212005475726E206F6E00322E5475726E206F8E
:1012220066660054454D503A000405060700010267
:10123200033738392B3435362D3132332A2A3023CD
:0C12420025476F6F642042796520210071
:00000001FF
